:100000000C9446000C9465000C9465000C946500FB
:100010000C9465000C9465000C9465000C946500CC
:100020000C9465000C9465000C9465000C946500BC
:100030000C9465000C94E3000C9465000C9465002E
:100040000C9465000C9465000C9465000C9465009C
:100050000C9465000C9465000C9465000C9465008C
:100060000C9465000C9465000C9465000C9465007C
:100070000C9465000C9465000C9465000C9465006C
:100080000C9465000C9465000C94650011241FBE4F
:10009000CFEFD0E4DEBFCDBF11E0A0E0B1E0ECEFE8
:1000A000F8E000E00BBF02C007900D92A431B10749
:1000B000D9F721E0A4E1B1E001C01D92AF31B20750
:1000C000E1F70E94AC020C947C040C940000CF93E6
:1000D000DF93CDB7DEB781E890E02BE0FC01208311
:1000E00088E890E02DE730E0FC01318320838FE643
:1000F00090E022E0FC01208384E890E0FC01118282
:1001000010828091000190910101A0910201B091B3
:1001100003018093150190931601A0931701B093EA
:1001200018018FE590E02FE530E0F901208120688B
:10013000FC0120830000DF91CF910895CF93DF93DE
:10014000CDB7DEB781E890E0FC0110820000DF91BE
:10015000CF910895CF93DF93CDB7DEB781E0809341
:1001600014010000DF91CF910895CF93DF9300D069
:1001700000D0CDB7DEB769837A838B839C83898176
:100180009A81AB81BC818093000190930101A0937F
:100190000201B09303018091000190910101A091AF
:1001A0000201B09103018093150190931601A09371
:1001B0001701B093180100000F900F900F900F904F
:1001C000DF91CF9108951F920F9200905F000F92E0
:1001D000112400905B000F922F933F934F935F93F6
:1001E0006F937F938F939F93AF93BF93EF93FF93FF
:1001F000CF93DF93CDB7DEB78091150190911601B3
:10020000A0911701B09118010197A109B10980933C
:10021000150190931601A0931701B09318018091D6
:10022000150190911601A0911701B0911801892B29
:100230008A2B8B2B91F40E94AA008091000190914F
:100240000101A0910201B0910301809315019093E7
:100250001601A0931701B09318010000DF91CF9110
:10026000FF91EF91BF91AF919F918F917F916F918E
:100270005F914F913F912F910F9000925B000F90F3
:1002800000925F000F901F9018950F931F93CF93CC
:10029000DF9300D000D0CDB7DEB769837A838B833C
:1002A0009C838091190190911A01A0911B01B0913A
:1002B0001C019C01AD0169817A818B819C810E9426
:1002C000E802882309F477C020E030E0A9016981C1
:1002D0007A818B819C810E94E802882351F481E914
:1002E00090E021E930E0F90120812870FC012083B1
:1002F00009C081E990E021E930E0F9012081236023
:10030000FC01208328E539E344E75FE369817A81D2
:100310008B819C810E94E802882344F488E990E064
:100320002FEF3FEFFC013183208334C020E034E223
:1003300044EF56E469817A818B819C810E940A0492
:10034000181634F488E990E0FC011182108222C072
:1003500008E910E020E030E040E053E469817A8170
:100360008B819C810E940F04DC01CB019C01AD01BB
:1003700060E074E284EF9AE40E94ED02DC01CB01BC
:10038000BC01CD010E945F03DC01CB010197F801A4
:100390009183808384E990E0FC011182108289813D
:1003A0009A81AB81BC818093190190931A01A0932B
:1003B0001B01B0931C0100000F900F900F900F9045
:1003C000DF91CF911F910F910895CF93DF93CDB718
:1003D000DEB780E990E020E4FC01208381E990E031
:1003E0002BE0FC01208360E070E0CB010E9445011E
:1003F0000000DF91CF910895CF93DF93CDB7DEB7A3
:1004000080E990E0FC01108281E990E0FC0110821B
:100410000000DF91CF910895CF93DF9300D01F921A
:10042000CDB7DEB789837B836A8389818A3031F4D3
:100430008A819B81BC018DE00E940C0280EC90E0DF
:10044000FC018081882F90E080729927892BB1F37D
:1004500086EC90E02981FC01208380E090E00F9001
:100460000F900F90DF91CF910895CF93DF93CDB789
:10047000DEB78AE790E02AE730E0F9012081206EBC
:10048000FC0120830000DF91CF910895CF93DF938B
:1004900000D0CDB7DEB79A83898389819A81892B71
:1004A00019F01A82198201C0000089819A81892B72
:1004B00009F03FC088E790E0FC0180819181909332
:1004C0001E0180931D0180911D0190911E01892BB9
:1004D00031F085E290E021E0FC01208304C085E258
:1004E00090E0FC011082809112018F3E59F48091BE
:1004F0001301813039F480E8809313018EEF8093EB
:10050000120116C080911301813069F480E8809354
:10051000130180911201882F90E0880F991F81604C
:100520008093120105C08091130186958093130179
:10053000000088E290E020911301FC0120838BE20F
:1005400090E020911201FC01208389819A810F9013
:100550000F90DF91CF910895CF93DF9300D0CDB767
:10056000DEB784E290E02FEFFC01208385E290E08B
:10057000FC01108287E290E02FEFFC01208388E2EB
:1005800090E0FC0110828AE290E02FEFFC012083D2
:100590008BE290E0FC0110820E9435026CE271E077
:1005A00080E090E00E94B5000E9467008FEF9FEF0F
:1005B0009A83898389819A810E9446029A838983DA
:1005C0000000809114018823E1F310921401F2CF0E
:1005D0000E94950308F481E008950E9401030C94A1
:1005E000D0030E94C90358F00E94C20340F029F4CE
:1005F0005F3F29F00C94B90351110C9404040C943E
:10060000BF030E94E10368F39923B1F3552391F3EB
:10061000951B550BBB27AA2762177307840738F071
:100620009F5F5F4F220F331F441FAA1FA9F335D0CE
:100630000E2E3AF0E0E832D091505040E695001C82
:10064000CAF72BD0FE2F29D0660F771F881FBB1F3C
:10065000261737074807AB07B0E809F0BB0B802D1A
:10066000BF01FF2793585F4F3AF09E3F510578F046
:100670000C94B9030C9404045F3FE4F3983ED4F364
:10068000869577956795B795F7959F5FC9F7880F1A
:10069000911D9695879597F90895E1E0660F771F6C
:1006A000881FBB1F621773078407BA0720F0621BFD
:1006B000730B840BBA0BEE1F88F7E09508950E9428
:1006C00066036894B1110C94040408950E94E90330
:1006D00088F09F5798F0B92F9927B751B0F0E1F003
:1006E000660F771F881F991F1AF0BA95C9F714C0B3
:1006F000B13091F00E940304B1E008950C9403041A
:10070000672F782F8827B85F39F0B93FCCF38695EB
:1007100077956795B395D9F73EF490958095709548
:1007200061957F4F8F4F9F4F0895990F0008550F88
:10073000AA0BE0E8FEEF16161706E807F907C0F067
:1007400012161306E407F50798F0621B730B840B6F
:10075000950B39F40A2661F0232B242B252B21F449
:1007600008950A2609F4A140A6958FEF811D811DE9
:10077000089597F99F6780E870E060E008959FEF23
:1007800080EC089500240A94161617061806090628
:10079000089500240A9412161306140605060895F7
:1007A000092E0394000C11F4882352F0BB0F40F47F
:1007B000BF2B11F460FF04C06F5F7F4F8F4F9F4FBF
:1007C000089557FD9058440F551F59F05F3F71F041
:1007D0004795880F97FB991F61F09F3F79F08795A8
:1007E0000895121613061406551FF2CF4695F1DF31
:1007F00008C0161617061806991FF1CF86957105C1
:10080000610508940895E894BB2766277727CB01F4
:1008100097F908950E94950308F48FEF08950E94B8
:1008200022040C94D0030E94C20338F00E94C90332
:1008300020F0952311F00C94B9030C94BF031124FC
:100840000C9404040E94E10370F3959FC1F3950F8B
:1008500050E0551F629FF001729FBB27F00DB11D44
:10086000639FAA27F00DB11DAA1F649F6627B00DD4
:10087000A11D661F829F2227B00DA11D621F739FBD
:10088000B00DA11D621F839FA00D611D221F749FCB
:100890003327A00D611D231F849F600D211D822F12
:1008A000762F6A2F11249F5750409AF0F1F0882339
:1008B0004AF0EE0FFF1FBB1F661F771F881F915066
:1008C0005040A9F79E3F510580F00C94B9030C9459
:1008D00004045F3FE4F3983ED4F3869577956795DB
:1008E000B795F795E7959F5FC1F7FE2B880F911D90
:0C08F0009695879597F90895F894FFCF2E
:1008FC000100000000000002000000000C020000DB
:04090C000000FE8069
:00000001FF
