:100000000C9446000C945D000C945D000C945D0013
:100010000C945D000C945D000C945D000C945D00EC
:100020000C945D000C945D000C945D000C945D00DC
:100030000C945D000C945D000C945D000C945D00CC
:100040000C945D000C945D000C945D000C945D00BC
:100050000C945D000C945D000C945D000C945D00AC
:100060000C945D000C945D000C945D000C945D009C
:100070000C945D000C945D000C945D000C945D008C
:100080000C945D000C945D000C945D0011241FBE67
:10009000CFEFD0E4DEBFCDBF11E0A0E0B1E0E2E001
:1000A000F2E000E00BBF02C007900D92A031B10753
:1000B000D9F70E94E6000C94FF000C940000CF9347
:1000C000DF9300D01F92CDB7DEB789837B836A832D
:1000D00089818A3031F48A819B81BC018DE00E9444
:1000E0005F0080EC90E0FC018081882F90E08072BE
:1000F0009927892BB1F386EC90E02981FC012083BC
:1001000080E090E00F900F900F90DF91CF910895D5
:10011000CF93DF93CDB7DEB78AE790E02AE730E0F0
:10012000F9012081206EFC0120830000DF91CF9136
:100130000895CF93DF9300D0CDB7DEB79A8389833C
:1001400089819A81892B19F01A82198201C00000D5
:1001500089819A81892B09F026C080910E018F3EFA
:1001600059F480910F01813039F480E880930F01B8
:100170008EEF80930E0116C080910F01813069F4DB
:1001800080E880930F0180910E01882F90E0880F06
:10019000991F816080930E0105C080910F018695A3
:1001A00080930F01000088E290E020910F01FC0194
:1001B00020838BE290E020910E01FC012083898155
:1001C0009A810F900F90DF91CF910895CF93DF9395
:1001D000CDB7DEB784E290E02FEFFC01208385E20B
:1001E00090E0FC01108287E290E02FEFFC01208379
:1001F00088E290E0FC0110820E948800FFCFF89412
:02020000FFCF2E
:1002020000000002000000005F0000000000FE800D
:00000001FF
